{
  "contractName": "EthunesSongs",
  "abi": [
    {
      "inputs": [
        {
          "internalType": "contract EthunesAccessControl",
          "name": "_ethunesAccessControl",
          "type": "address"
        }
      ],
      "stateMutability": "nonpayable",
      "type": "constructor"
    },
    {
      "anonymous": false,
      "inputs": [
        {
          "indexed": true,
          "internalType": "address",
          "name": "owner",
          "type": "address"
        },
        {
          "indexed": true,
          "internalType": "address",
          "name": "approved",
          "type": "address"
        },
        {
          "indexed": true,
          "internalType": "uint256",
          "name": "tokenId",
          "type": "uint256"
        }
      ],
      "name": "Approval",
      "type": "event"
    },
    {
      "anonymous": false,
      "inputs": [
        {
          "indexed": true,
          "internalType": "address",
          "name": "owner",
          "type": "address"
        },
        {
          "indexed": true,
          "internalType": "address",
          "name": "operator",
          "type": "address"
        },
        {
          "indexed": false,
          "internalType": "bool",
          "name": "approved",
          "type": "bool"
        }
      ],
      "name": "ApprovalForAll",
      "type": "event"
    },
    {
      "anonymous": false,
      "inputs": [
        {
          "indexed": true,
          "internalType": "address",
          "name": "from",
          "type": "address"
        },
        {
          "indexed": true,
          "internalType": "address",
          "name": "to",
          "type": "address"
        },
        {
          "indexed": true,
          "internalType": "uint256",
          "name": "tokenId",
          "type": "uint256"
        }
      ],
      "name": "Transfer",
      "type": "event"
    },
    {
      "inputs": [],
      "name": "BASE_URL",
      "outputs": [
        {
          "internalType": "string",
          "name": "",
          "type": "string"
        }
      ],
      "stateMutability": "view",
      "type": "function",
      "constant": true
    },
    {
      "inputs": [],
      "name": "ethunesAccessControl",
      "outputs": [
        {
          "internalType": "contract EthunesAccessControl",
          "name": "",
          "type": "address"
        }
      ],
      "stateMutability": "view",
      "type": "function",
      "constant": true
    },
    {
      "inputs": [],
      "name": "name",
      "outputs": [
        {
          "internalType": "string",
          "name": "",
          "type": "string"
        }
      ],
      "stateMutability": "view",
      "type": "function",
      "constant": true
    },
    {
      "inputs": [],
      "name": "symbol",
      "outputs": [
        {
          "internalType": "string",
          "name": "",
          "type": "string"
        }
      ],
      "stateMutability": "view",
      "type": "function",
      "constant": true
    },
    {
      "inputs": [],
      "name": "tokenPointer",
      "outputs": [
        {
          "internalType": "uint256",
          "name": "",
          "type": "uint256"
        }
      ],
      "stateMutability": "view",
      "type": "function",
      "constant": true
    },
    {
      "inputs": [
        {
          "internalType": "bytes4",
          "name": "_interfaceId",
          "type": "bytes4"
        }
      ],
      "name": "supportsInterface",
      "outputs": [
        {
          "internalType": "bool",
          "name": "",
          "type": "bool"
        }
      ],
      "stateMutability": "view",
      "type": "function",
      "constant": true
    },
    {
      "inputs": [
        {
          "internalType": "address",
          "name": "_owner",
          "type": "address"
        }
      ],
      "name": "balanceOf",
      "outputs": [
        {
          "internalType": "uint256",
          "name": "",
          "type": "uint256"
        }
      ],
      "stateMutability": "view",
      "type": "function",
      "constant": true
    },
    {
      "inputs": [
        {
          "internalType": "uint256",
          "name": "_tokenId",
          "type": "uint256"
        }
      ],
      "name": "ownerOf",
      "outputs": [
        {
          "internalType": "address",
          "name": "",
          "type": "address"
        }
      ],
      "stateMutability": "view",
      "type": "function",
      "constant": true
    },
    {
      "inputs": [
        {
          "internalType": "uint256",
          "name": "_tokenId",
          "type": "uint256"
        }
      ],
      "name": "tokenURI",
      "outputs": [
        {
          "internalType": "string",
          "name": "",
          "type": "string"
        }
      ],
      "stateMutability": "view",
      "type": "function",
      "constant": true
    },
    {
      "inputs": [
        {
          "internalType": "address",
          "name": "_to",
          "type": "address"
        },
        {
          "internalType": "uint256",
          "name": "_tokenId",
          "type": "uint256"
        }
      ],
      "name": "approve",
      "outputs": [],
      "stateMutability": "nonpayable",
      "type": "function"
    },
    {
      "inputs": [
        {
          "internalType": "uint256",
          "name": "_tokenId",
          "type": "uint256"
        }
      ],
      "name": "getApproved",
      "outputs": [
        {
          "internalType": "address",
          "name": "",
          "type": "address"
        }
      ],
      "stateMutability": "view",
      "type": "function",
      "constant": true
    },
    {
      "inputs": [
        {
          "internalType": "address",
          "name": "_operator",
          "type": "address"
        },
        {
          "internalType": "bool",
          "name": "_approved",
          "type": "bool"
        }
      ],
      "name": "setApprovalForAll",
      "outputs": [],
      "stateMutability": "nonpayable",
      "type": "function"
    },
    {
      "inputs": [
        {
          "internalType": "address",
          "name": "_owner",
          "type": "address"
        },
        {
          "internalType": "address",
          "name": "_operator",
          "type": "address"
        }
      ],
      "name": "isApprovedForAll",
      "outputs": [
        {
          "internalType": "bool",
          "name": "",
          "type": "bool"
        }
      ],
      "stateMutability": "view",
      "type": "function",
      "constant": true
    },
    {
      "inputs": [
        {
          "internalType": "address",
          "name": "_from",
          "type": "address"
        },
        {
          "internalType": "address",
          "name": "_to",
          "type": "address"
        },
        {
          "internalType": "uint256",
          "name": "_tokenId",
          "type": "uint256"
        }
      ],
      "name": "transferFrom",
      "outputs": [],
      "stateMutability": "nonpayable",
      "type": "function"
    },
    {
      "inputs": [
        {
          "internalType": "address",
          "name": "_from",
          "type": "address"
        },
        {
          "internalType": "address",
          "name": "_to",
          "type": "address"
        },
        {
          "internalType": "uint256",
          "name": "_tokenId",
          "type": "uint256"
        }
      ],
      "name": "safeTransferFrom",
      "outputs": [],
      "stateMutability": "nonpayable",
      "type": "function"
    },
    {
      "inputs": [
        {
          "internalType": "address",
          "name": "_from",
          "type": "address"
        },
        {
          "internalType": "address",
          "name": "_to",
          "type": "address"
        },
        {
          "internalType": "uint256",
          "name": "_tokenId",
          "type": "uint256"
        },
        {
          "internalType": "bytes",
          "name": "_data",
          "type": "bytes"
        }
      ],
      "name": "safeTransferFrom",
      "outputs": [],
      "stateMutability": "nonpayable",
      "type": "function"
    },
    {
      "inputs": [
        {
          "internalType": "uint256",
          "name": "_tokenId",
          "type": "uint256"
        }
      ],
      "name": "_exists",
      "outputs": [
        {
          "internalType": "bool",
          "name": "",
          "type": "bool"
        }
      ],
      "stateMutability": "view",
      "type": "function",
      "constant": true
    },
    {
      "inputs": [
        {
          "internalType": "address",
          "name": "_to",
          "type": "address"
        },
        {
          "internalType": "string",
          "name": "_uri",
          "type": "string"
        }
      ],
      "name": "mint",
      "outputs": [],
      "stateMutability": "nonpayable",
      "type": "function"
    }
  ],
  "bytecode": "0x60c06040526007608081905266457468756e657360c81b60a09081526200002a9160009190620000ae565b506040805180820190915260038082526245545560e81b60209092019182526200005791600191620000ae565b503480156200006557600080fd5b506040516200192f3803806200192f833981016040819052620000889162000154565b600780546001600160a01b0319166001600160a01b0392909216919091179055620001c1565b828054620000bc9062000184565b90600052602060002090601f016020900481019282620000e057600085556200012b565b82601f10620000fb57805160ff19168380011785556200012b565b828001600101855582156200012b579182015b828111156200012b5782518255916020019190600101906200010e565b50620001399291506200013d565b5090565b5b808211156200013957600081556001016200013e565b60006020828403121562000166578081fd5b81516001600160a01b03811681146200017d578182fd5b9392505050565b600181811c908216806200019957607f821691505b60208210811415620001bb57634e487b7160e01b600052602260045260246000fd5b50919050565b61175e80620001d16000396000f3fe608060405234801561001057600080fd5b50600436106101365760003560e01c806370a08231116100b2578063b88d4fde11610081578063d0def52111610066578063d0def521146102c1578063e985e9c5146102d4578063f8e76cc01461031057600080fd5b8063b88d4fde1461029b578063c87b56dd146102ae57600080fd5b806370a08231146102315780637f78636a1461024457806395d89b4114610280578063a22cb4651461028857600080fd5b8063095ea7b31161010957806328af5676116100ee57806328af5676146101e257806342842e0e146101f55780636352211e1461020857600080fd5b8063095ea7b3146101ba57806323b872dd146101cf57600080fd5b806301ffc9a71461013b578063028316511461016357806306fdde031461017a578063081812fc1461018f575b600080fd5b61014e610149366004611545565b610323565b60405190151581526020015b60405180910390f35b61016c60065481565b60405190815260200161015a565b6101826103c0565b60405161015a919061162c565b6101a261019d36600461157d565b61044e565b6040516001600160a01b03909116815260200161015a565b6101cd6101c8366004611500565b6104db565b005b6101cd6101dd36600461133c565b6105ee565b6007546101a2906001600160a01b031681565b6101cd61020336600461133c565b610675565b6101a261021636600461157d565b6000908152600260205260409020546001600160a01b031690565b61016c61023f3660046112f0565b610690565b6101826040518060400160405280601c81526020017f68747470733a2f2f697066732e696e667572612e696f2f697066732f0000000081525081565b61018261072a565b6101cd61029636600461144c565b610737565b6101cd6102a9366004611377565b6107fc565b6101826102bc36600461157d565b61088a565b6101cd6102cf366004611482565b6109af565b61014e6102e236600461130a565b6001600160a01b03918216600090815260056020908152604080832093909416825291909152205460ff1690565b61014e61031e36600461157d565b610ac5565b60006001600160e01b031982167f80ac58cd00000000000000000000000000000000000000000000000000000000148061038657506001600160e01b031982167f5b5e139f00000000000000000000000000000000000000000000000000000000145b806103ba57507f01ffc9a7000000000000000000000000000000000000000000000000000000006001600160e01b03198316145b92915050565b600080546103cd9061169a565b80601f01602080910402602001604051908101604052809291908181526020018280546103f99061169a565b80156104465780601f1061041b57610100808354040283529160200191610446565b820191906000526020600020905b81548152906001019060200180831161042957829003601f168201915b505050505081565b600061045982610ac5565b6104bf5760405162461bcd60e51b815260206004820152602c60248201527f4552433732313a20617070726f76656420717565727920666f72206e6f6e657860448201526b34b9ba32b73a103a37b5b2b760a11b60648201526084015b60405180910390fd5b506000908152600460205260409020546001600160a01b031690565b6000818152600260205260409020546001600160a01b039081169083168114156105515760405162461bcd60e51b815260206004820152602160248201527f4552433732313a20617070726f76616c20746f2063757272656e74206f776e656044820152603960f91b60648201526084016104b6565b336001600160a01b038216148061056d575061056d81336102e2565b6105df5760405162461bcd60e51b815260206004820152603860248201527f4552433732313a20617070726f76652063616c6c6572206973206e6f74206f7760448201527f6e6572206e6f7220617070726f76656420666f7220616c6c000000000000000060648201526084016104b6565b6105e98383610afe565b505050565b6105f83382610b72565b61066a5760405162461bcd60e51b815260206004820152603160248201527f4552433732313a207472616e736665722063616c6c6572206973206e6f74206f60448201527f776e6572206e6f7220617070726f76656400000000000000000000000000000060648201526084016104b6565b6105e9838383610c55565b6105e9838383604051806020016040528060008152506107fc565b60006001600160a01b03821661070e5760405162461bcd60e51b815260206004820152602a60248201527f4552433732313a2062616c616e636520717565727920666f7220746865207a6560448201527f726f20616464726573730000000000000000000000000000000000000000000060648201526084016104b6565b506001600160a01b031660009081526003602052604090205490565b600180546103cd9061169a565b6001600160a01b0382163314156107905760405162461bcd60e51b815260206004820152601960248201527f4552433732313a20617070726f766520746f2063616c6c65720000000000000060448201526064016104b6565b3360008181526005602090815260408083206001600160a01b03871680855290835292819020805460ff191686151590811790915590519081529192917f17307eab39ab6107e8899845ad3d59bd9653f200f220920489ca2b5937696c31910160405180910390a35050565b6108063383610b72565b6108785760405162461bcd60e51b815260206004820152603160248201527f4552433732313a207472616e736665722063616c6c6572206973206e6f74206f60448201527f776e6572206e6f7220617070726f76656400000000000000000000000000000060648201526084016104b6565b61088484848484610e48565b50505050565b6000818152600860205260408120805460609291906108a89061169a565b80601f01602080910402602001604051908101604052809291908181526020018280546108d49061169a565b80156109215780601f106108f657610100808354040283529160200191610921565b820191906000526020600020905b81548152906001019060200180831161090457829003601f168201915b50505050509050600061096460408051808201909152601c81527f68747470733a2f2f697066732e696e667572612e696f2f697066732f00000000602082015290565b9050600081511161098457604051806020016040528060008152506109a7565b80826040516020016109979291906115c1565b6040516020818303038152906040525b949350505050565b6007546001600160a01b031663134c1d83336040516001600160e01b031960e084901b1681526001600160a01b03909116600482015260240160206040518083038186803b158015610a0057600080fd5b505afa158015610a14573d6000803e3d6000fd5b505050506040513d601f19601f82011682018060405250810190610a389190611529565b610aaa5760405162461bcd60e51b815260206004820152602d60248201527f457468756e6573546f6b656e2e6d696e743a2063616c6c6572206974206e6f7460448201527f2077686974656c69737465642e0000000000000000000000000000000000000060648201526084016104b6565b6105e983838360405180602001604052806000815250610ec6565b6000818152600260205260408120546001600160a01b03168015801590610af757506001600160a01b03811661dead14155b9392505050565b6000818152600460209081526040808320805473ffffffffffffffffffffffffffffffffffffffff19166001600160a01b038781169182179092556002909352818420549151859492909116917f8c5be1e5ebec7d5bd14f71427d1e84f3dd0314c0f7b2291e5b200ac8c7c3b92591a45050565b6000610b7d82610ac5565b610bde5760405162461bcd60e51b815260206004820152602c60248201527f4552433732313a206f70657261746f7220717565727920666f72206e6f6e657860448201526b34b9ba32b73a103a37b5b2b760a11b60648201526084016104b6565b6000828152600260205260409020546001600160a01b03908116908416811480610c215750836001600160a01b0316610c168461044e565b6001600160a01b0316145b806109a757506001600160a01b0380821660009081526005602090815260408083209388168352929052205460ff166109a7565b6000818152600260205260409020546001600160a01b03848116911614610ce45760405162461bcd60e51b815260206004820152602960248201527f4552433732313a207472616e73666572206f6620746f6b656e2074686174206960448201527f73206e6f74206f776e000000000000000000000000000000000000000000000060648201526084016104b6565b6001600160a01b03821615801590610d0757506001600160a01b03821661dead14155b610d785760405162461bcd60e51b8152602060048201526024808201527f4552433732313a207472616e7366657220746f20746865207a65726f2061646460448201527f726573730000000000000000000000000000000000000000000000000000000060648201526084016104b6565b610d83600082610afe565b6001600160a01b0383166000908152600360205260408120805460019290610dac908490611657565b90915550506001600160a01b0382166000908152600360205260408120805460019290610dda90849061163f565b9091555050600081815260026020526040808220805473ffffffffffffffffffffffffffffffffffffffff19166001600160a01b0386811691821790925591518493918716917fddf252ad1be2c89b69c2b068fc378daa952ba7f163c4a11628f55a4df523b3ef91a4505050565b610e53848484610c55565b610e5f84848484610f68565b6108845760405162461bcd60e51b815260206004820152603260248201527f4552433732313a207472616e7366657220746f206e6f6e20455243373231526560448201527131b2b4bb32b91034b6b83632b6b2b73a32b960711b60648201526084016104b6565b600160066000828254610ed9919061163f565b9091555050600654610eed858286866110c0565b610efa6000868385610f68565b610f615760405162461bcd60e51b815260206004820152603260248201527f4552433732313a207472616e7366657220746f206e6f6e20455243373231526560448201527131b2b4bb32b91034b6b83632b6b2b73a32b960711b60648201526084016104b6565b5050505050565b60006001600160a01b0384163b156110b557604051630a85bd0160e11b81526001600160a01b0385169063150b7a0290610fac9033908990889088906004016115f0565b602060405180830381600087803b158015610fc657600080fd5b505af1925050508015610ff6575060408051601f3d908101601f19168201909252610ff391810190611561565b60015b61109b573d808015611024576040519150601f19603f3d011682016040523d82523d6000602084013e611029565b606091505b5080516110935760405162461bcd60e51b815260206004820152603260248201527f4552433732313a207472616e7366657220746f206e6f6e20455243373231526560448201527131b2b4bb32b91034b6b83632b6b2b73a32b960711b60648201526084016104b6565b805181602001fd5b6001600160e01b031916630a85bd0160e11b1490506109a7565b506001949350505050565b6001600160a01b038416158015906110e357506001600160a01b03841661dead14155b61112f5760405162461bcd60e51b815260206004820181905260248201527f4552433732313a206d696e7420746f20746865207a65726f206164647265737360448201526064016104b6565b61113883610ac5565b156111855760405162461bcd60e51b815260206004820152601c60248201527f4552433732313a20746f6b656e20616c7265616479206d696e7465640000000060448201526064016104b6565b6001600160a01b03841660009081526003602052604081208054600192906111ae90849061163f565b90915550506000838152600260209081526040808320805473ffffffffffffffffffffffffffffffffffffffff19166001600160a01b038916179055600890915290206111fc90838361123b565b5060405183906001600160a01b038616906000907fddf252ad1be2c89b69c2b068fc378daa952ba7f163c4a11628f55a4df523b3ef908290a450505050565b8280546112479061169a565b90600052602060002090601f01602090048101928261126957600085556112af565b82601f106112825782800160ff198235161785556112af565b828001600101855582156112af579182015b828111156112af578235825591602001919060010190611294565b506112bb9291506112bf565b5090565b5b808211156112bb57600081556001016112c0565b80356001600160a01b03811681146112eb57600080fd5b919050565b600060208284031215611301578081fd5b610af7826112d4565b6000806040838503121561131c578081fd5b611325836112d4565b9150611333602084016112d4565b90509250929050565b600080600060608486031215611350578081fd5b611359846112d4565b9250611367602085016112d4565b9150604084013590509250925092565b6000806000806080858703121561138c578081fd5b611395856112d4565b93506113a3602086016112d4565b925060408501359150606085013567ffffffffffffffff808211156113c6578283fd5b818701915087601f8301126113d9578283fd5b8135818111156113eb576113eb6116eb565b604051601f8201601f19908116603f01168101908382118183101715611413576114136116eb565b816040528281528a602084870101111561142b578586fd5b82602086016020830137918201602001949094529598949750929550505050565b6000806040838503121561145e578182fd5b611467836112d4565b9150602083013561147781611701565b809150509250929050565b600080600060408486031215611496578283fd5b61149f846112d4565b9250602084013567ffffffffffffffff808211156114bb578384fd5b818601915086601f8301126114ce578384fd5b8135818111156114dc578485fd5b8760208285010111156114ed578485fd5b6020830194508093505050509250925092565b60008060408385031215611512578182fd5b61151b836112d4565b946020939093013593505050565b60006020828403121561153a578081fd5b8151610af781611701565b600060208284031215611556578081fd5b8135610af781611712565b600060208284031215611572578081fd5b8151610af781611712565b60006020828403121561158e578081fd5b5035919050565b600081518084526115ad81602086016020860161166e565b601f01601f19169290920160200192915050565b600083516115d381846020880161166e565b8351908301906115e781836020880161166e565b01949350505050565b60006001600160a01b038087168352808616602084015250836040830152608060608301526116226080830184611595565b9695505050505050565b602081526000610af76020830184611595565b60008219821115611652576116526116d5565b500190565b600082821015611669576116696116d5565b500390565b60005b83811015611689578181015183820152602001611671565b838111156108845750506000910152565b600181811c908216806116ae57607f821691505b602082108114156116cf57634e487b7160e01b600052602260045260246000fd5b50919050565b634e487b7160e01b600052601160045260246000fd5b634e487b7160e01b600052604160045260246000fd5b801515811461170f57600080fd5b50565b6001600160e01b03198116811461170f57600080fdfea2646970667358221220e47bfdfa6795ebecdfbf5ba8c8f99a911b662b0fc0e4f568a1262ece38382c2364736f6c63430008040033",
  "immutableReferences": {},
  "source": "// SPDX-License-Identifier: MIT\n\npragma solidity ^0.8.0;\n\nimport \"@openzeppelin/contracts/token/ERC721/IERC721.sol\";\nimport \"@openzeppelin/contracts/token/ERC721/IERC721Receiver.sol\";\nimport \"@openzeppelin/contracts/token/ERC721/extensions/IERC721Metadata.sol\";\nimport \"@openzeppelin/contracts/utils/Address.sol\";\nimport \"@openzeppelin/contracts/utils/Strings.sol\";\nimport \"@openzeppelin/contracts/utils/Context.sol\";\nimport \"@openzeppelin/contracts/utils/introspection/ERC165.sol\";\nimport \"./EthunesAccessControl.sol\";\n\n/**\n * @title Ethunes songs NFT contract\n * @author Mehrad, Emma, Sven, Shahin\n * @dev ERC721 NFT contract for Ethunes songs\n */\ncontract EthunesSongs is Context, ERC165, IERC721, IERC721Metadata {\n    using Address for address;\n\n    // Token name\n    string public override name = \"Ethunes\";\n\n    // Token symbol\n    string public override symbol = \"ETU\";\n\n    // Burn/Dead address\n    address private constant DEAD_ADDRESS = 0x000000000000000000000000000000000000dEaD;\n\n    string public constant BASE_URL = \"https://ipfs.infura.io/ipfs/\";\n\n    // Mapping from token ID to owner address\n    mapping(uint256 => address) private owners;\n\n    // Mapping owner address to token count\n    mapping(address => uint256) private balances;\n\n    // Mapping from token ID to approved address\n    mapping(uint256 => address) private tokenApprovals;\n\n    // Mapping from owner to operator approvals\n    mapping(address => mapping(address => bool)) private operatorApprovals;\n\n    uint256 public tokenPointer; \n\n    EthunesAccessControl public ethunesAccessControl;\n\n    // Mapping for token URIs\n    mapping(uint256 => string) internal tokenURIs;\n\n    constructor(EthunesAccessControl _ethunesAccessControl) {\n        ethunesAccessControl = _ethunesAccessControl;\n    }\n\n    /**\n     * @dev See {IERC165-supportsInterface}.\n     */\n    function supportsInterface(bytes4 _interfaceId)\n        public\n        view\n        override(ERC165, IERC165)\n        returns (bool)\n    {\n        return\n            _interfaceId == type(IERC721).interfaceId ||\n            _interfaceId == type(IERC721Metadata).interfaceId ||\n            super.supportsInterface(_interfaceId);\n    }\n\n    /**\n     * @dev See {IERC721-balanceOf}.\n     */\n    function balanceOf(address _owner) public view override returns (uint256) {\n        require(\n            _owner != address(0),\n            \"ERC721: balance query for the zero address\"\n        );\n        return balances[_owner];\n    }\n\n    /**\n     * @dev See {IERC721-ownerOf}.\n     */\n    function ownerOf(uint256 _tokenId) public view override returns (address) {\n        return owners[_tokenId];\n    }\n\n    /**\n     * @dev See {IERC721Metadata-tokenURI}.\n     */\n    function tokenURI(uint256 _tokenId)\n        public\n        view\n        override\n        returns (string memory)\n    {\n        string memory uri = tokenURIs[_tokenId];\n\n        string memory baseURI = _baseURI();\n        return\n            bytes(baseURI).length > 0\n                ? string(abi.encodePacked(baseURI, uri))\n                : \"\";\n    }\n\n    /**\n     * @dev Base URI for computing {tokenURI}. Empty by default, can be overriden\n     * in child contracts.\n     */\n    function _baseURI() internal pure returns (string memory) {\n        return BASE_URL;\n    }\n\n    //TODO: SET BASE URI ONLYADMIN\n\n    /**\n     * @dev See {IERC721-approve}.\n     */\n    function approve(address _to, uint256 _tokenId) public override {\n        address owner = ownerOf(_tokenId);\n        require(_to != owner, \"ERC721: approval to current owner\");\n\n        require(\n            _msgSender() == owner || isApprovedForAll(owner, _msgSender()),\n            \"ERC721: approve caller is not owner nor approved for all\"\n        );\n\n        _approve(_to, _tokenId);\n    }\n\n    /**\n     * @dev See {IERC721-getApproved}.\n     */\n    function getApproved(uint256 _tokenId)\n        public\n        view\n        override\n        returns (address)\n    {\n        require(\n            _exists(_tokenId),\n            \"ERC721: approved query for nonexistent token\"\n        );\n\n        return tokenApprovals[_tokenId];\n    }\n\n    /**\n     * @dev See {IERC721-setApprovalForAll}.\n     */\n    function setApprovalForAll(address _operator, bool _approved)\n        public\n        override\n    {\n        require(_operator != _msgSender(), \"ERC721: approve to caller\");\n\n        operatorApprovals[_msgSender()][_operator] = _approved;\n        emit ApprovalForAll(_msgSender(), _operator, _approved);\n    }\n\n    /**\n     * @dev See {IERC721-isApprovedForAll}.\n     */\n    function isApprovedForAll(address _owner, address _operator)\n        public\n        view\n        override\n        returns (bool)\n    {\n        return operatorApprovals[_owner][_operator];\n    }\n\n    /**\n     * @dev See {IERC721-transferFrom}.\n     */\n    function transferFrom(\n        address _from,\n        address _to,\n        uint256 _tokenId\n    ) public override {\n        //solhint-disable-next-line max-line-length\n        require(\n            _isApprovedOrOwner(_msgSender(), _tokenId),\n            \"ERC721: transfer caller is not owner nor approved\"\n        );\n\n        _transfer(_from, _to, _tokenId);\n    }\n\n    /**\n     * @dev See {IERC721-safeTransferFrom}.\n     */\n    function safeTransferFrom(\n        address _from,\n        address _to,\n        uint256 _tokenId\n    ) public override {\n        safeTransferFrom(_from, _to, _tokenId, \"\");\n    }\n\n    /**\n     * @dev See {IERC721-safeTransferFrom}.\n     */\n    function safeTransferFrom(\n        address _from,\n        address _to,\n        uint256 _tokenId,\n        bytes memory _data\n    ) public override {\n        require(\n            _isApprovedOrOwner(_msgSender(), _tokenId),\n            \"ERC721: transfer caller is not owner nor approved\"\n        );\n        _safeTransfer(_from, _to, _tokenId, _data);\n    }\n\n    /**\n     * @dev Safely transfers `tokenId` token from `from` to `to`, checking first that contract recipients\n     * are aware of the ERC721 protocol to prevent tokens from being forever locked.\n     *\n     * `_data` is additional data, it has no specified format and it is sent in call to `to`.\n     *\n     * This internal function is equivalent to {safeTransferFrom}, and can be used to e.g.\n     * implement alternative mechanisms to perform token transfer, such as signature-based.\n     *\n     * Requirements:\n     *\n     * - `from` cannot be the zero address.\n     * - `to` cannot be the zero address.\n     * - `tokenId` token must exist and be owned by `from`.\n     * - If `to` refers to a smart contract, it must implement {IERC721Receiver-onERC721Received}, which is called upon a safe transfer.\n     *\n     * Emits a {Transfer} event.\n     */\n    function _safeTransfer(\n        address _from,\n        address _to,\n        uint256 _tokenId,\n        bytes memory _data\n    ) internal {\n        _transfer(_from, _to, _tokenId);\n        require(\n            _checkOnERC721Received(_from, _to, _tokenId, _data),\n            \"ERC721: transfer to non ERC721Receiver implementer\"\n        );\n    }\n\n    /**\n     * @dev Returns whether `tokenId` exists.\n     *\n     * Tokens can be managed by their owner or approved accounts via {approve} or {setApprovalForAll}.\n     *\n     * Tokens start existing when they are minted (`_mint`),\n     * and stop existing when they are burned (`_burn`).\n     */\n    function _exists(uint256 _tokenId) public view returns (bool) {\n        address owner = owners[_tokenId];\n        return owner != address(0) && owner != DEAD_ADDRESS;\n    }\n\n    /**\n     * @dev Returns whether `spender` is allowed to manage `tokenId`.\n     *\n     * Requirements:\n     *\n     * - `tokenId` must exist.\n     */\n    function _isApprovedOrOwner(address _spender, uint256 _tokenId)\n        internal\n        view\n        returns (bool)\n    {\n        require(\n            _exists(_tokenId),\n            \"ERC721: operator query for nonexistent token\"\n        );\n        address owner = ownerOf(_tokenId);\n        return (_spender == owner ||\n            getApproved(_tokenId) == _spender ||\n            isApprovedForAll(owner, _spender));\n    }\n\n    /**\n     * @dev Safely mints `tokenId` and transfers it to `to`.\n     *\n     * Requirements:\n     *\n     * - `tokenId` must not exist.\n     * - If `to` refers to a smart contract, it must implement {IERC721Receiver-onERC721Received}, which is called upon a safe transfer.\n     *\n     * Emits a {Transfer} event.\n     */\n    function mint(address _to, string calldata _uri) external {\n        require(ethunesAccessControl.hasContractWhitelistRole(_msgSender()), \"EthunesToken.mint: caller it not whitelisted.\");\n        _safeMint(_to, _uri, \"\");\n    }\n\n    /**\n     * @dev Same as {xref-ERC721-_safeMint-address-uint256-}[`_safeMint`], with an additional `data` parameter which is\n     * forwarded in {IERC721Receiver-onERC721Received} to contract recipients.\n     */\n    function _safeMint(\n        address _to,\n        string calldata _uri,\n        bytes memory _data\n    ) internal {\n        tokenPointer += 1;\n        uint256 tokenId = tokenPointer;\n        _mint(_to, tokenId, _uri);\n        require(\n            _checkOnERC721Received(address(0), _to, tokenId, _data),\n            \"ERC721: transfer to non ERC721Receiver implementer\"\n        );\n    }\n\n    /**\n     * @dev Mints `tokenId` and transfers it to `to`.\n     *\n     * WARNING: Usage of this method is discouraged, use {_safeMint} whenever possible\n     *\n     * Requirements:\n     *\n     * - `tokenId` must not exist.\n     * - `to` cannot be the zero address.\n     *\n     * Emits a {Transfer} event.\n     */\n    function _mint(address _to, uint256 _tokenId, string calldata _uri) internal {\n        require(_to != address(0) && _to != DEAD_ADDRESS, \"ERC721: mint to the zero address\");\n        require(!_exists(_tokenId), \"ERC721: token already minted\");\n\n        _beforeTokenTransfer(address(0), _to, _tokenId);\n\n        balances[_to] += 1;\n        owners[_tokenId] = _to;\n\n        tokenURIs[_tokenId] = _uri;\n\n        emit Transfer(address(0), _to, _tokenId);\n    }\n\n    /**\n     * @dev Destroys `tokenId`.\n     * The approval is cleared when the token is burned.\n     *\n     * Requirements:\n     *\n     * - `tokenId` must exist.\n     *\n     * Emits a {Transfer} event.\n     */\n    function _burn(uint256 _tokenId) internal {\n        address owner = ownerOf(_tokenId);\n\n        _beforeTokenTransfer(owner, address(0), _tokenId);\n\n        // Clear approvals\n        _approve(address(0), _tokenId);\n\n        balances[owner] -= 1;\n        delete owners[_tokenId];\n\n        emit Transfer(owner, address(0), _tokenId);\n    }\n\n    /**\n     * @dev Transfers `tokenId` from `from` to `to`.\n     *  As opposed to {transferFrom}, this imposes no restrictions on msg.sender.\n     *\n     * Requirements:\n     *\n     * - `to` cannot be the zero address.\n     * - `tokenId` token must be owned by `from`.\n     *\n     * Emits a {Transfer} event.\n     */\n    function _transfer(\n        address _from,\n        address _to,\n        uint256 _tokenId\n    ) internal {\n        require(\n            ownerOf(_tokenId) == _from,\n            \"ERC721: transfer of token that is not own\"\n        );\n        require(_to != address(0) && _to != DEAD_ADDRESS, \"ERC721: transfer to the zero address\");\n\n        _beforeTokenTransfer(_from, _to, _tokenId);\n\n        // Clear approvals from the previous owner\n        _approve(address(0), _tokenId);\n\n        balances[_from] -= 1;\n        balances[_to] += 1;\n        owners[_tokenId] = _to;\n\n        emit Transfer(_from, _to, _tokenId);\n    }\n\n    /**\n     * @dev Approve `to` to operate on `tokenId`\n     *\n     * Emits a {Approval} event.\n     */\n    function _approve(address _to, uint256 _tokenId) internal {\n        tokenApprovals[_tokenId] = _to;\n        emit Approval(ownerOf(_tokenId), _to, _tokenId);\n    }\n\n    /**\n     * @dev Internal function to invoke {IERC721Receiver-onERC721Received} on a target address.\n     * The call is not executed if the target address is not a contract.\n     *\n     * @param _from address representing the previous owner of the given token ID\n     * @param _to target address that will receive the tokens\n     * @param _tokenId uint256 ID of the token to be transferred\n     * @param _data bytes optional data to send along with the call\n     * @return bool whether the call correctly returned the expected magic value\n     */\n    function _checkOnERC721Received(\n        address _from,\n        address _to,\n        uint256 _tokenId,\n        bytes memory _data\n    ) private returns (bool) {\n        if (_to.isContract()) {\n            try\n                IERC721Receiver(_to).onERC721Received(\n                    _msgSender(),\n                    _from,\n                    _tokenId,\n                    _data\n                )\n            returns (bytes4 retval) {\n                return retval == IERC721Receiver(_to).onERC721Received.selector;\n            } catch (bytes memory reason) {\n                if (reason.length == 0) {\n                    revert(\n                        \"ERC721: transfer to non ERC721Receiver implementer\"\n                    );\n                } else {\n                    // solhint-disable-next-line no-inline-assembly\n                    assembly {\n                        revert(add(32, reason), mload(reason))\n                    }\n                }\n            }\n        } else {\n            return true;\n        }\n    }\n\n    /**\n     * @dev Hook that is called before any token transfer. This includes minting\n     * and burning.\n     *\n     * Calling conditions:\n     *\n     * - When `from` and `to` are both non-zero, ``from``'s `tokenId` will be\n     * transferred to `to`.\n     * - When `from` is zero, `tokenId` will be minted for `to`.\n     * - When `to` is zero, ``from``'s `tokenId` will be burned.\n     * - `from` cannot be the zero address.\n     * - `to` cannot be the zero address.\n     *\n     * To learn more about hooks, head to xref:ROOT:extending-contracts.adoc#using-hooks[Using Hooks].\n     */\n    function _beforeTokenTransfer(\n        address _from,\n        address _to,\n        uint256 _tokenId\n    ) internal virtual {}\n}\n",
  "sourcePath": "/Users/mehradkavian/Dropbox/ethunes/ethunes-contracts/contracts/EthunesSongs.sol",
  "compiler": {
    "name": "solc",
    "version": "0.8.4+commit.c7e474f2.Emscripten.clang"
  },
  "schemaVersion": "3.3.4",
  "updatedAt": "2021-05-29T20:03:34.349Z",
  "networkType": "ethereum",
  "devdoc": {
    "author": "Mehrad, Emma, Sven, Shahin",
    "details": "ERC721 NFT contract for Ethunes songs",
    "kind": "dev",
    "methods": {
      "_exists(uint256)": {
        "details": "Returns whether `tokenId` exists. Tokens can be managed by their owner or approved accounts via {approve} or {setApprovalForAll}. Tokens start existing when they are minted (`_mint`), and stop existing when they are burned (`_burn`)."
      },
      "approve(address,uint256)": {
        "details": "See {IERC721-approve}."
      },
      "balanceOf(address)": {
        "details": "See {IERC721-balanceOf}."
      },
      "getApproved(uint256)": {
        "details": "See {IERC721-getApproved}."
      },
      "isApprovedForAll(address,address)": {
        "details": "See {IERC721-isApprovedForAll}."
      },
      "mint(address,string)": {
        "details": "Safely mints `tokenId` and transfers it to `to`. Requirements: - `tokenId` must not exist. - If `to` refers to a smart contract, it must implement {IERC721Receiver-onERC721Received}, which is called upon a safe transfer. Emits a {Transfer} event."
      },
      "ownerOf(uint256)": {
        "details": "See {IERC721-ownerOf}."
      },
      "safeTransferFrom(address,address,uint256)": {
        "details": "See {IERC721-safeTransferFrom}."
      },
      "safeTransferFrom(address,address,uint256,bytes)": {
        "details": "See {IERC721-safeTransferFrom}."
      },
      "setApprovalForAll(address,bool)": {
        "details": "See {IERC721-setApprovalForAll}."
      },
      "supportsInterface(bytes4)": {
        "details": "See {IERC165-supportsInterface}."
      },
      "tokenURI(uint256)": {
        "details": "See {IERC721Metadata-tokenURI}."
      },
      "transferFrom(address,address,uint256)": {
        "details": "See {IERC721-transferFrom}."
      }
    },
    "stateVariables": {
      "name": {
        "details": "Returns the token collection name."
      },
      "symbol": {
        "details": "Returns the token collection symbol."
      }
    },
    "title": "Ethunes songs NFT contract",
    "version": 1
  },
  "userdoc": {
    "kind": "user",
    "methods": {},
    "version": 1
  }
}